{
    "_format": "hh-sol-artifact-1",
    "contractName": "RPSLS",
    "sourceName": "contracts/DecentralizedDrive.sol",
    "address": "0x3d791aebF11D469DC1604eb8c028E7885845fEBf",
    "abi": [
        {
            "inputs": [
                {
                    "internalType": "bytes32",
                    "name": "_move1Hash",
                    "type": "bytes32"
                },
                {
                    "internalType": "address",
                    "name": "_player1",
                    "type": "address"
                },
                {
                    "internalType": "address",
                    "name": "_player2",
                    "type": "address"
                }
            ],
            "stateMutability": "payable",
            "type": "constructor"
        },
        {
            "anonymous": false,
            "inputs": [
                {
                    "indexed": true,
                    "internalType": "address",
                    "name": "winner",
                    "type": "address"
                }
            ],
            "name": "GameSolved",
            "type": "event"
        },
        {
            "anonymous": false,
            "inputs": [],
            "name": "GameTied",
            "type": "event"
        },
        {
            "anonymous": false,
            "inputs": [
                {
                    "indexed": true,
                    "internalType": "address",
                    "name": "fallbackWinner",
                    "type": "address"
                }
            ],
            "name": "GameTimedOut",
            "type": "event"
        },
        {
            "anonymous": false,
            "inputs": [
                {
                    "indexed": true,
                    "internalType": "address",
                    "name": "_player2",
                    "type": "address"
                },
                {
                    "indexed": true,
                    "internalType": "enum RPSLS.Move",
                    "name": "_move2",
                    "type": "uint8"
                }
            ],
            "name": "Player2Played",
            "type": "event"
        },
        {
            "inputs": [],
            "name": "TIMEOUT_IN_MS",
            "outputs": [
                {
                    "internalType": "uint256",
                    "name": "",
                    "type": "uint256"
                }
            ],
            "stateMutability": "view",
            "type": "function"
        },
        {
            "inputs": [],
            "name": "claimTimeout",
            "outputs": [],
            "stateMutability": "nonpayable",
            "type": "function"
        },
        {
            "inputs": [],
            "name": "lastTimePlayed",
            "outputs": [
                {
                    "internalType": "uint256",
                    "name": "",
                    "type": "uint256"
                }
            ],
            "stateMutability": "view",
            "type": "function"
        },
        {
            "inputs": [],
            "name": "move1",
            "outputs": [
                {
                    "internalType": "enum RPSLS.Move",
                    "name": "",
                    "type": "uint8"
                }
            ],
            "stateMutability": "view",
            "type": "function"
        },
        {
            "inputs": [],
            "name": "move2",
            "outputs": [
                {
                    "internalType": "enum RPSLS.Move",
                    "name": "",
                    "type": "uint8"
                }
            ],
            "stateMutability": "view",
            "type": "function"
        },
        {
            "inputs": [
                {
                    "internalType": "enum RPSLS.Move",
                    "name": "_move2",
                    "type": "uint8"
                }
            ],
            "name": "play",
            "outputs": [],
            "stateMutability": "payable",
            "type": "function"
        },
        {
            "inputs": [],
            "name": "player1",
            "outputs": [
                {
                    "internalType": "address",
                    "name": "",
                    "type": "address"
                }
            ],
            "stateMutability": "view",
            "type": "function"
        },
        {
            "inputs": [],
            "name": "player2",
            "outputs": [
                {
                    "internalType": "address",
                    "name": "",
                    "type": "address"
                }
            ],
            "stateMutability": "view",
            "type": "function"
        },
        {
            "inputs": [
                {
                    "internalType": "enum RPSLS.Move",
                    "name": "_move1",
                    "type": "uint8"
                },
                {
                    "internalType": "string",
                    "name": "_salt",
                    "type": "string"
                }
            ],
            "name": "solve",
            "outputs": [],
            "stateMutability": "nonpayable",
            "type": "function"
        },
        {
            "inputs": [],
            "name": "stake",
            "outputs": [
                {
                    "internalType": "uint256",
                    "name": "",
                    "type": "uint256"
                }
            ],
            "stateMutability": "view",
            "type": "function"
        },
        {
            "inputs": [
                {
                    "internalType": "enum RPSLS.Move",
                    "name": "_move1",
                    "type": "uint8"
                },
                {
                    "internalType": "enum RPSLS.Move",
                    "name": "_move2",
                    "type": "uint8"
                }
            ],
            "name": "win",
            "outputs": [
                {
                    "internalType": "bool",
                    "name": "",
                    "type": "bool"
                }
            ],
            "stateMutability": "pure",
            "type": "function"
        }
    ],
    "bytecode": "0x608060405261012c6005556040516200198b3803806200198b83398181016040528101906200002f919062000173565b3460048190555082600281905550816000806101000a81548173ffffffffffffffffffffffffffffffffffffffff021916908373ffffffffffffffffffffffffffffffffffffffff16021790555080600160006101000a81548173ffffffffffffffffffffffffffffffffffffffff021916908373ffffffffffffffffffffffffffffffffffffffff16021790555042600681905550505050620001cf565b600080fd5b6000819050919050565b620000e881620000d3565b8114620000f457600080fd5b50565b6000815190506200010881620000dd565b92915050565b600073ffffffffffffffffffffffffffffffffffffffff82169050919050565b60006200013b826200010e565b9050919050565b6200014d816200012e565b81146200015957600080fd5b50565b6000815190506200016d8162000142565b92915050565b6000806000606084860312156200018f576200018e620000ce565b5b60006200019f86828701620000f7565b9350506020620001b2868287016200015c565b9250506040620001c5868287016200015c565b9150509250925092565b6117ac80620001df6000396000f3fe60806040526004361061009c5760003560e01c806353a04b051161006457806353a04b05146101765780635689a4c01461019257806359a5f12d146101bb5780637a6206b0146101e6578063c78eb54614610211578063d30895e41461023c5761009c565b80630c4395b9146100a15780630e1da6c3146100de57806333d85d44146100f55780633a4b66f114610120578063470a67f21461014b575b600080fd5b3480156100ad57600080fd5b506100c860048036038101906100c39190610ef3565b610267565b6040516100d59190610f4e565b60405180910390f35b3480156100ea57600080fd5b506100f3610373565b005b34801561010157600080fd5b5061010a610703565b6040516101179190610fe0565b60405180910390f35b34801561012c57600080fd5b50610135610716565b6040516101429190611014565b60405180910390f35b34801561015757600080fd5b5061016061071c565b60405161016d9190611014565b60405180910390f35b610190600480360381019061018b919061102f565b610722565b005b34801561019e57600080fd5b506101b960048036038101906101b491906110c1565b6108e2565b005b3480156101c757600080fd5b506101d0610e61565b6040516101dd9190611162565b60405180910390f35b3480156101f257600080fd5b506101fb610e87565b6040516102089190611014565b60405180910390f35b34801561021d57600080fd5b50610226610e8d565b6040516102339190610fe0565b60405180910390f35b34801561024857600080fd5b50610251610ea0565b60405161025e9190611162565b60405180910390f35b600081600581111561027c5761027b610f69565b5b83600581111561028f5761028e610f69565b5b0361029d576000905061036d565b600060058111156102b1576102b0610f69565b5b8360058111156102c4576102c3610f69565b5b036102d2576000905061036d565b60028260058111156102e7576102e6610f69565b5b6102f191906111ac565b600284600581111561030657610305610f69565b5b61031091906111ac565b036103435781600581111561032857610327610f69565b5b83600581111561033b5761033a610f69565b5b10905061036d565b81600581111561035657610355610f69565b5b83600581111561036957610368610f69565b5b1190505b92915050565b60008054906101000a900473ffffffffffffffffffffffffffffffffffffffff1673ffffffffffffffffffffffffffffffffffffffff163373ffffffffffffffffffffffffffffffffffffffff16148061041a5750600160009054906101000a900473ffffffffffffffffffffffffffffffffffffffff1673ffffffffffffffffffffffffffffffffffffffff163373ffffffffffffffffffffffffffffffffffffffff16145b610459576040517f08c379a000000000000000000000000000000000000000000000000000000000815260040161045090611260565b60405180910390fd5b60055460065461046991906112af565b42116104aa576040517f08c379a00000000000000000000000000000000000000000000000000000000081526004016104a19061132f565b60405180910390fd5b600060045490506000600481905550600073ffffffffffffffffffffffffffffffffffffffff16600160009054906101000a900473ffffffffffffffffffffffffffffffffffffffff1673ffffffffffffffffffffffffffffffffffffffff16036105e45760008060009054906101000a900473ffffffffffffffffffffffffffffffffffffffff1673ffffffffffffffffffffffffffffffffffffffff166108fc839081150290604051600060405180830381858888f1935050505090508061057a57816004819055506105de565b60008054906101000a900473ffffffffffffffffffffffffffffffffffffffff1673ffffffffffffffffffffffffffffffffffffffff167f2000eb25e7c59aeedac9771b33ebc8c82601204b4b5340c4c1338df7c3dafd2460405160405180910390a25b50610700565b600060058111156105f8576105f7610f69565b5b600360019054906101000a900460ff16600581111561061a57610619610f69565b5b146106ff576000600160009054906101000a900473ffffffffffffffffffffffffffffffffffffffff1673ffffffffffffffffffffffffffffffffffffffff166108fc60028461066a919061134f565b9081150290604051600060405180830381858888f1935050505090508061069757816004819055506106fd565b600160009054906101000a900473ffffffffffffffffffffffffffffffffffffffff1673ffffffffffffffffffffffffffffffffffffffff167f2000eb25e7c59aeedac9771b33ebc8c82601204b4b5340c4c1338df7c3dafd2460405160405180910390a25b505b5b50565b600360009054906101000a900460ff1681565b60045481565b60065481565b6004543414610766576040517f08c379a000000000000000000000000000000000000000000000000000000000815260040161075d9061144f565b60405180910390fd5b600160009054906101000a900473ffffffffffffffffffffffffffffffffffffffff1673ffffffffffffffffffffffffffffffffffffffff163373ffffffffffffffffffffffffffffffffffffffff16146107c057600080fd5b600060058111156107d4576107d3610f69565b5b600360019054906101000a900460ff1660058111156107f6576107f5610f69565b5b14610836576040517f08c379a000000000000000000000000000000000000000000000000000000000815260040161082d906114bb565b60405180910390fd5b80600360016101000a81548160ff0219169083600581111561085b5761085a610f69565b5b02179055504260068190555080600581111561087a57610879610f69565b5b600160009054906101000a900473ffffffffffffffffffffffffffffffffffffffff1673ffffffffffffffffffffffffffffffffffffffff167ffcb8e08f4ac2a8268d2c498558c32d244b5e4adfed71c9deb463b6c92903924960405160405180910390a350565b60008054906101000a900473ffffffffffffffffffffffffffffffffffffffff1673ffffffffffffffffffffffffffffffffffffffff163373ffffffffffffffffffffffffffffffffffffffff161461093a57600080fd5b600073ffffffffffffffffffffffffffffffffffffffff16600160009054906101000a900473ffffffffffffffffffffffffffffffffffffffff1673ffffffffffffffffffffffffffffffffffffffff16036109cb576040517f08c379a00000000000000000000000000000000000000000000000000000000081526004016109c29061154d565b60405180910390fd5b600060058111156109df576109de610f69565b5b600360019054906101000a900460ff166005811115610a0157610a00610f69565b5b03610a41576040517f08c379a0000000000000000000000000000000000000000000000000000000008152600401610a38906115b9565b60405180910390fd5b600254838383604051602001610a599392919061164e565b6040516020818303038152906040528051906020012014610aaf576040517f08c379a0000000000000000000000000000000000000000000000000000000008152600401610aa6906116ea565b60405180910390fd5b600060045411610af4576040517f08c379a0000000000000000000000000000000000000000000000000000000008152600401610aeb90611756565b60405180910390fd5b82600360006101000a81548160ff02191690836005811115610b1957610b18610f69565b5b021790555060006004549050610b4d600360009054906101000a900460ff16600360019054906101000a900460ff16610267565b15610c3b57600060048190555060008060009054906101000a900473ffffffffffffffffffffffffffffffffffffffff1673ffffffffffffffffffffffffffffffffffffffff166108fc836002610ba4919061134f565b9081150290604051600060405180830381858888f19350505050905080610bd15781600481905550610c35565b60008054906101000a900473ffffffffffffffffffffffffffffffffffffffff1673ffffffffffffffffffffffffffffffffffffffff167f53509893162d468df35dea1b35dcc82efcdba39f034428814f342839be56ddce60405160405180910390a25b50610e5b565b610c63600360009054906101000a900460ff16600360019054906101000a900460ff16610267565b15610d545760006004819055506000600160009054906101000a900473ffffffffffffffffffffffffffffffffffffffff1673ffffffffffffffffffffffffffffffffffffffff166108fc836002610cbb919061134f565b9081150290604051600060405180830381858888f19350505050905080610ce85781600481905550610d4e565b600160009054906101000a900473ffffffffffffffffffffffffffffffffffffffff1673ffffffffffffffffffffffffffffffffffffffff167f53509893162d468df35dea1b35dcc82efcdba39f034428814f342839be56ddce60405160405180910390a25b50610e5a565b60006004819055506000600160009054906101000a900473ffffffffffffffffffffffffffffffffffffffff1673ffffffffffffffffffffffffffffffffffffffff166108fc839081150290604051600060405180830381858888f19350505050905060008060009054906101000a900473ffffffffffffffffffffffffffffffffffffffff1673ffffffffffffffffffffffffffffffffffffffff166108fc849081150290604051600060405180830381858888f1935050505090508180610e1a5750805b610e2a5782600481905550610e57565b7f518c48f6356ad4fc6a3d373979965b4396a1c578eaabff2e7f7ce750e367e8f660405160405180910390a15b50505b5b50505050565b600160009054906101000a900473ffffffffffffffffffffffffffffffffffffffff1681565b60055481565b600360019054906101000a900460ff1681565b60008054906101000a900473ffffffffffffffffffffffffffffffffffffffff1681565b600080fd5b600080fd5b60068110610edb57600080fd5b50565b600081359050610eed81610ece565b92915050565b60008060408385031215610f0a57610f09610ec4565b5b6000610f1885828601610ede565b9250506020610f2985828601610ede565b9150509250929050565b60008115159050919050565b610f4881610f33565b82525050565b6000602082019050610f636000830184610f3f565b92915050565b7f4e487b7100000000000000000000000000000000000000000000000000000000600052602160045260246000fd5b60068110610fa957610fa8610f69565b5b50565b6000819050610fba82610f98565b919050565b6000610fca82610fac565b9050919050565b610fda81610fbf565b82525050565b6000602082019050610ff56000830184610fd1565b92915050565b6000819050919050565b61100e81610ffb565b82525050565b60006020820190506110296000830184611005565b92915050565b60006020828403121561104557611044610ec4565b5b600061105384828501610ede565b91505092915050565b600080fd5b600080fd5b600080fd5b60008083601f8401126110815761108061105c565b5b8235905067ffffffffffffffff81111561109e5761109d611061565b5b6020830191508360018202830111156110ba576110b9611066565b5b9250929050565b6000806000604084860312156110da576110d9610ec4565b5b60006110e886828701610ede565b935050602084013567ffffffffffffffff81111561110957611108610ec9565b5b6111158682870161106b565b92509250509250925092565b600073ffffffffffffffffffffffffffffffffffffffff82169050919050565b600061114c82611121565b9050919050565b61115c81611141565b82525050565b60006020820190506111776000830184611153565b92915050565b7f4e487b7100000000000000000000000000000000000000000000000000000000600052601260045260246000fd5b60006111b782610ffb565b91506111c283610ffb565b9250826111d2576111d161117d565b5b828206905092915050565b600082825260208201905092915050565b7f596f75277265206e6f74206120706c61796572206f6620746869732067616d6560008201527f2e00000000000000000000000000000000000000000000000000000000000000602082015250565b600061124a6021836111dd565b9150611255826111ee565b604082019050919050565b600060208201905081810360008301526112798161123d565b9050919050565b7f4e487b7100000000000000000000000000000000000000000000000000000000600052601160045260246000fd5b60006112ba82610ffb565b91506112c583610ffb565b92508282019050808211156112dd576112dc611280565b5b92915050565b7f54696d6520686173206e6f742072756e206f7574207965742e00000000000000600082015250565b60006113196019836111dd565b9150611324826112e3565b602082019050919050565b600060208201905081810360008301526113488161130c565b9050919050565b600061135a82610ffb565b915061136583610ffb565b925082820261137381610ffb565b9150828204841483151761138a57611389611280565b5b5092915050565b7f496e73756666696369656e742066756e647320666f72206d6f76652e204d616b60008201527f65207375726520796f75207374616b652074686520726571756972656420616d60208201527f6f756e74206f662045544820666f7220746865207472616e73616374696f6e2060408201527f746f20737563636565642e000000000000000000000000000000000000000000606082015250565b6000611439606b836111dd565b915061144482611391565b608082019050919050565b600060208201905081810360008301526114688161142c565b9050919050565b7f4d6f766520616c726561647920706c6179656400000000000000000000000000600082015250565b60006114a56013836111dd565b91506114b08261146f565b602082019050919050565b600060208201905081810360008301526114d481611498565b9050919050565b7f506c6179657220322073686f756c64206d616b6520686973206d6f766520696e60008201527f206f7264657220746f20736f6c76652074686520726f756e642e000000000000602082015250565b6000611537603a836111dd565b9150611542826114db565b604082019050919050565b600060208201905081810360008301526115668161152a565b9050919050565b7f506c6179657220322073686f756c64206d6f76652066697273742e0000000000600082015250565b60006115a3601b836111dd565b91506115ae8261156d565b602082019050919050565b600060208201905081810360008301526115d281611596565b9050919050565b60008160f81b9050919050565b60006115f1826115d9565b9050919050565b61160961160482610fbf565b6115e6565b82525050565b600081905092915050565b82818337600083830152505050565b6000611635838561160f565b935061164283858461161a565b82840190509392505050565b600061165a82866115f8565b60018201915061166b828486611629565b9150819050949350505050565b7f546865206578706f7365642076616c7565206973206e6f74207468652068617360008201527f686564206f6e6521000000000000000000000000000000000000000000000000602082015250565b60006116d46028836111dd565b91506116df82611678565b604082019050919050565b60006020820190508181036000830152611703816116c7565b9050919050565b7f57696e6e657220697320616c72656164792064657465726d696e65642e000000600082015250565b6000611740601d836111dd565b915061174b8261170a565b602082019050919050565b6000602082019050818103600083015261176f81611733565b905091905056fea26469706673582212203301b8b9d994797b97002dfd1fa5d17ca040aa364cfa186e1167cd6ca42cd0a864736f6c63430008110033",
    "linkReferences": {},
    "deployedLinkReferences": {}
}